{
  "_format": "hh-sol-artifact-1",
  "contractName": "PharmaTrustChain",
  "sourceName": "contracts/PharmaTrustChain.sol",
  "abi": [
    {
      "inputs": [],
      "stateMutability": "nonpayable",
      "type": "constructor"
    },
    {
      "inputs": [],
      "name": "AccessControlBadConfirmation",
      "type": "error"
    },
    {
      "inputs": [
        {
          "internalType": "address",
          "name": "account",
          "type": "address"
        },
        {
          "internalType": "bytes32",
          "name": "neededRole",
          "type": "bytes32"
        }
      ],
      "name": "AccessControlUnauthorizedAccount",
      "type": "error"
    },
    {
      "anonymous": false,
      "inputs": [
        {
          "indexed": false,
          "internalType": "uint256",
          "name": "batchId",
          "type": "uint256"
        },
        {
          "indexed": false,
          "internalType": "string",
          "name": "name",
          "type": "string"
        },
        {
          "indexed": false,
          "internalType": "string",
          "name": "ipfsHash",
          "type": "string"
        },
        {
          "indexed": false,
          "internalType": "address",
          "name": "manufacturer",
          "type": "address"
        }
      ],
      "name": "BatchRegistered",
      "type": "event"
    },
    {
      "anonymous": false,
      "inputs": [
        {
          "indexed": false,
          "internalType": "uint256",
          "name": "batchId",
          "type": "uint256"
        },
        {
          "indexed": false,
          "internalType": "string",
          "name": "reason",
          "type": "string"
        }
      ],
      "name": "BatchRevoked",
      "type": "event"
    },
    {
      "anonymous": false,
      "inputs": [
        {
          "indexed": false,
          "internalType": "uint256",
          "name": "batchId",
          "type": "uint256"
        },
        {
          "indexed": false,
          "internalType": "address",
          "name": "from",
          "type": "address"
        },
        {
          "indexed": false,
          "internalType": "address",
          "name": "to",
          "type": "address"
        }
      ],
      "name": "OwnershipTransferred",
      "type": "event"
    },
    {
      "anonymous": false,
      "inputs": [
        {
          "indexed": true,
          "internalType": "bytes32",
          "name": "role",
          "type": "bytes32"
        },
        {
          "indexed": true,
          "internalType": "bytes32",
          "name": "previousAdminRole",
          "type": "bytes32"
        },
        {
          "indexed": true,
          "internalType": "bytes32",
          "name": "newAdminRole",
          "type": "bytes32"
        }
      ],
      "name": "RoleAdminChanged",
      "type": "event"
    },
    {
      "anonymous": false,
      "inputs": [
        {
          "indexed": true,
          "internalType": "bytes32",
          "name": "role",
          "type": "bytes32"
        },
        {
          "indexed": true,
          "internalType": "address",
          "name": "account",
          "type": "address"
        },
        {
          "indexed": true,
          "internalType": "address",
          "name": "sender",
          "type": "address"
        }
      ],
      "name": "RoleGranted",
      "type": "event"
    },
    {
      "anonymous": false,
      "inputs": [
        {
          "indexed": true,
          "internalType": "bytes32",
          "name": "role",
          "type": "bytes32"
        },
        {
          "indexed": true,
          "internalType": "address",
          "name": "account",
          "type": "address"
        },
        {
          "indexed": true,
          "internalType": "address",
          "name": "sender",
          "type": "address"
        }
      ],
      "name": "RoleRevoked",
      "type": "event"
    },
    {
      "anonymous": false,
      "inputs": [
        {
          "indexed": true,
          "internalType": "address",
          "name": "user",
          "type": "address"
        },
        {
          "indexed": false,
          "internalType": "string",
          "name": "name",
          "type": "string"
        },
        {
          "indexed": false,
          "internalType": "uint8",
          "name": "role",
          "type": "uint8"
        }
      ],
      "name": "UserRegistered",
      "type": "event"
    },
    {
      "anonymous": false,
      "inputs": [
        {
          "indexed": true,
          "internalType": "address",
          "name": "user",
          "type": "address"
        },
        {
          "indexed": false,
          "internalType": "string",
          "name": "reason",
          "type": "string"
        }
      ],
      "name": "UserRevoked",
      "type": "event"
    },
    {
      "inputs": [],
      "name": "ADMIN_ROLE",
      "outputs": [
        {
          "internalType": "bytes32",
          "name": "",
          "type": "bytes32"
        }
      ],
      "stateMutability": "view",
      "type": "function"
    },
    {
      "inputs": [],
      "name": "DEFAULT_ADMIN_ROLE",
      "outputs": [
        {
          "internalType": "bytes32",
          "name": "",
          "type": "bytes32"
        }
      ],
      "stateMutability": "view",
      "type": "function"
    },
    {
      "inputs": [],
      "name": "DISTRIBUTOR_ROLE",
      "outputs": [
        {
          "internalType": "bytes32",
          "name": "",
          "type": "bytes32"
        }
      ],
      "stateMutability": "view",
      "type": "function"
    },
    {
      "inputs": [],
      "name": "MANUFACTURER_ROLE",
      "outputs": [
        {
          "internalType": "bytes32",
          "name": "",
          "type": "bytes32"
        }
      ],
      "stateMutability": "view",
      "type": "function"
    },
    {
      "inputs": [],
      "name": "PHARMACY_ROLE",
      "outputs": [
        {
          "internalType": "bytes32",
          "name": "",
          "type": "bytes32"
        }
      ],
      "stateMutability": "view",
      "type": "function"
    },
    {
      "inputs": [
        {
          "internalType": "address",
          "name": "account",
          "type": "address"
        }
      ],
      "name": "addDistributor",
      "outputs": [],
      "stateMutability": "nonpayable",
      "type": "function"
    },
    {
      "inputs": [
        {
          "internalType": "address",
          "name": "account",
          "type": "address"
        }
      ],
      "name": "addManufacturer",
      "outputs": [],
      "stateMutability": "nonpayable",
      "type": "function"
    },
    {
      "inputs": [
        {
          "internalType": "address",
          "name": "account",
          "type": "address"
        }
      ],
      "name": "addPharmacy",
      "outputs": [],
      "stateMutability": "nonpayable",
      "type": "function"
    },
    {
      "inputs": [],
      "name": "admin",
      "outputs": [
        {
          "internalType": "address",
          "name": "",
          "type": "address"
        }
      ],
      "stateMutability": "view",
      "type": "function"
    },
    {
      "inputs": [],
      "name": "batchCount",
      "outputs": [
        {
          "internalType": "uint256",
          "name": "",
          "type": "uint256"
        }
      ],
      "stateMutability": "view",
      "type": "function"
    },
    {
      "inputs": [
        {
          "internalType": "uint256",
          "name": "",
          "type": "uint256"
        }
      ],
      "name": "batches",
      "outputs": [
        {
          "internalType": "uint256",
          "name": "id",
          "type": "uint256"
        },
        {
          "internalType": "string",
          "name": "name",
          "type": "string"
        },
        {
          "internalType": "string",
          "name": "batchNumber",
          "type": "string"
        },
        {
          "internalType": "string",
          "name": "ipfsHash",
          "type": "string"
        },
        {
          "internalType": "address",
          "name": "manufacturer",
          "type": "address"
        },
        {
          "internalType": "address",
          "name": "currentOwner",
          "type": "address"
        },
        {
          "internalType": "bool",
          "name": "revoked",
          "type": "bool"
        },
        {
          "internalType": "uint256",
          "name": "timestamp",
          "type": "uint256"
        },
        {
          "internalType": "string",
          "name": "revokeReason",
          "type": "string"
        }
      ],
      "stateMutability": "view",
      "type": "function"
    },
    {
      "inputs": [],
      "name": "getAllBatches",
      "outputs": [
        {
          "components": [
            {
              "internalType": "uint256",
              "name": "id",
              "type": "uint256"
            },
            {
              "internalType": "string",
              "name": "name",
              "type": "string"
            },
            {
              "internalType": "string",
              "name": "batchNumber",
              "type": "string"
            },
            {
              "internalType": "string",
              "name": "ipfsHash",
              "type": "string"
            },
            {
              "internalType": "address",
              "name": "manufacturer",
              "type": "address"
            },
            {
              "internalType": "address",
              "name": "currentOwner",
              "type": "address"
            },
            {
              "internalType": "bool",
              "name": "revoked",
              "type": "bool"
            },
            {
              "internalType": "uint256",
              "name": "timestamp",
              "type": "uint256"
            },
            {
              "internalType": "string",
              "name": "revokeReason",
              "type": "string"
            }
          ],
          "internalType": "struct PharmaTrustChain.Batch[]",
          "name": "",
          "type": "tuple[]"
        }
      ],
      "stateMutability": "view",
      "type": "function"
    },
    {
      "inputs": [
        {
          "internalType": "address",
          "name": "manufacturer",
          "type": "address"
        }
      ],
      "name": "getBatchesByManufacturer",
      "outputs": [
        {
          "components": [
            {
              "internalType": "uint256",
              "name": "id",
              "type": "uint256"
            },
            {
              "internalType": "string",
              "name": "name",
              "type": "string"
            },
            {
              "internalType": "string",
              "name": "batchNumber",
              "type": "string"
            },
            {
              "internalType": "string",
              "name": "ipfsHash",
              "type": "string"
            },
            {
              "internalType": "address",
              "name": "manufacturer",
              "type": "address"
            },
            {
              "internalType": "address",
              "name": "currentOwner",
              "type": "address"
            },
            {
              "internalType": "bool",
              "name": "revoked",
              "type": "bool"
            },
            {
              "internalType": "uint256",
              "name": "timestamp",
              "type": "uint256"
            },
            {
              "internalType": "string",
              "name": "revokeReason",
              "type": "string"
            }
          ],
          "internalType": "struct PharmaTrustChain.Batch[]",
          "name": "",
          "type": "tuple[]"
        }
      ],
      "stateMutability": "view",
      "type": "function"
    },
    {
      "inputs": [
        {
          "internalType": "bytes32",
          "name": "role",
          "type": "bytes32"
        }
      ],
      "name": "getRoleAdmin",
      "outputs": [
        {
          "internalType": "bytes32",
          "name": "",
          "type": "bytes32"
        }
      ],
      "stateMutability": "view",
      "type": "function"
    },
    {
      "inputs": [
        {
          "internalType": "bytes32",
          "name": "role",
          "type": "bytes32"
        },
        {
          "internalType": "address",
          "name": "account",
          "type": "address"
        }
      ],
      "name": "grantRole",
      "outputs": [],
      "stateMutability": "nonpayable",
      "type": "function"
    },
    {
      "inputs": [
        {
          "internalType": "bytes32",
          "name": "role",
          "type": "bytes32"
        },
        {
          "internalType": "address",
          "name": "account",
          "type": "address"
        }
      ],
      "name": "hasRole",
      "outputs": [
        {
          "internalType": "bool",
          "name": "",
          "type": "bool"
        }
      ],
      "stateMutability": "view",
      "type": "function"
    },
    {
      "inputs": [
        {
          "internalType": "string",
          "name": "name",
          "type": "string"
        },
        {
          "internalType": "string",
          "name": "batchNumber",
          "type": "string"
        },
        {
          "internalType": "string",
          "name": "ipfsHash",
          "type": "string"
        }
      ],
      "name": "registerBatch",
      "outputs": [],
      "stateMutability": "nonpayable",
      "type": "function"
    },
    {
      "inputs": [
        {
          "internalType": "address",
          "name": "userAddr",
          "type": "address"
        },
        {
          "internalType": "string",
          "name": "userName",
          "type": "string"
        },
        {
          "internalType": "uint8",
          "name": "userRole",
          "type": "uint8"
        }
      ],
      "name": "registerUser",
      "outputs": [],
      "stateMutability": "nonpayable",
      "type": "function"
    },
    {
      "inputs": [
        {
          "internalType": "bytes32",
          "name": "role",
          "type": "bytes32"
        },
        {
          "internalType": "address",
          "name": "callerConfirmation",
          "type": "address"
        }
      ],
      "name": "renounceRole",
      "outputs": [],
      "stateMutability": "nonpayable",
      "type": "function"
    },
    {
      "inputs": [
        {
          "internalType": "uint256",
          "name": "batchId",
          "type": "uint256"
        },
        {
          "internalType": "string",
          "name": "reason",
          "type": "string"
        }
      ],
      "name": "revokeBatch",
      "outputs": [],
      "stateMutability": "nonpayable",
      "type": "function"
    },
    {
      "inputs": [
        {
          "internalType": "bytes32",
          "name": "role",
          "type": "bytes32"
        },
        {
          "internalType": "address",
          "name": "account",
          "type": "address"
        }
      ],
      "name": "revokeRole",
      "outputs": [],
      "stateMutability": "nonpayable",
      "type": "function"
    },
    {
      "inputs": [
        {
          "internalType": "address",
          "name": "userAddr",
          "type": "address"
        },
        {
          "internalType": "string",
          "name": "reason",
          "type": "string"
        }
      ],
      "name": "revokeUser",
      "outputs": [],
      "stateMutability": "nonpayable",
      "type": "function"
    },
    {
      "inputs": [
        {
          "internalType": "bytes4",
          "name": "interfaceId",
          "type": "bytes4"
        }
      ],
      "name": "supportsInterface",
      "outputs": [
        {
          "internalType": "bool",
          "name": "",
          "type": "bool"
        }
      ],
      "stateMutability": "view",
      "type": "function"
    },
    {
      "inputs": [
        {
          "internalType": "uint256",
          "name": "batchId",
          "type": "uint256"
        },
        {
          "internalType": "address",
          "name": "newOwner",
          "type": "address"
        }
      ],
      "name": "transferOwnership",
      "outputs": [],
      "stateMutability": "nonpayable",
      "type": "function"
    },
    {
      "inputs": [
        {
          "internalType": "address",
          "name": "",
          "type": "address"
        }
      ],
      "name": "users",
      "outputs": [
        {
          "internalType": "bool",
          "name": "exists",
          "type": "bool"
        },
        {
          "internalType": "string",
          "name": "name",
          "type": "string"
        },
        {
          "internalType": "uint8",
          "name": "role",
          "type": "uint8"
        }
      ],
      "stateMutability": "view",
      "type": "function"
    }
  ],
  "bytecode": "0x608060405234801561001057600080fd5b5033600460006101000a81548173ffffffffffffffffffffffffffffffffffffffff021916908373ffffffffffffffffffffffffffffffffffffffff1602179055506100656000801b3361009c60201b60201c565b506100967fa49807205ce4d355092ef5a8a18f56e8913cf4a201fbe287825b095693c217753361009c60201b60201c565b5061020b565b60006100ae838361019960201b60201c565b61018e57600160008085815260200190815260200160002060000160008473ffffffffffffffffffffffffffffffffffffffff1673ffffffffffffffffffffffffffffffffffffffff16815260200190815260200160002060006101000a81548160ff02191690831515021790555061012b61020360201b60201c565b73ffffffffffffffffffffffffffffffffffffffff168273ffffffffffffffffffffffffffffffffffffffff16847f2f8788117e7eff1d82e926ec794901d17c78024a50270940304540a733656f0d60405160405180910390a460019050610193565b600090505b92915050565b600080600084815260200190815260200160002060000160008373ffffffffffffffffffffffffffffffffffffffff1673ffffffffffffffffffffffffffffffffffffffff16815260200190815260200160002060009054906101000a900460ff16905092915050565b600033905090565b6137c78061021a6000396000f3fe608060405234801561001057600080fd5b50600436106101735760003560e01c8063a217fddf116100de578063d547741f11610097578063ea99eaaf11610071578063ea99eaaf1461043c578063f0bd87cc1461046c578063f0c58ea71461048a578063f851a440146104a857610173565b8063d547741f146103e6578063d7a6e31414610402578063e80e076b1461041e57610173565b8063a217fddf1461030a578063a87430ba14610328578063ae32ef161461035a578063afd675f814610376578063b32c4d8d14610392578063cacd7218146103ca57610173565b80635f8a5afa116101305780635f8a5afa1461024a5780637250e2241461026657806375b238fc1461028257806381efad24146102a057806391d14854146102bc578063965288b0146102ec57610173565b806301ffc9a71461017857806306f13056146101a8578063248a9ca3146101c657806329507f73146101f65780632f2ff15d1461021257806336568abe1461022e575b600080fd5b610192600480360381019061018d9190612501565b6104c6565b60405161019f9190612549565b60405180910390f35b6101b0610540565b6040516101bd919061257d565b60405180910390f35b6101e060048036038101906101db91906125ce565b610546565b6040516101ed919061260a565b60405180910390f35b610210600480360381019061020b91906126af565b610565565b005b61022c600480360381019061022791906126ef565b610701565b005b610248600480360381019061024391906126ef565b610723565b005b610264600480360381019061025f919061272f565b61079e565b005b610280600480360381019061027b919061272f565b6107f7565b005b61028a610850565b604051610297919061260a565b60405180910390f35b6102ba60048036038101906102b591906127fa565b610874565b005b6102d660048036038101906102d191906126ef565b610bfa565b6040516102e39190612549565b60405180910390f35b6102f4610c64565b604051610301919061260a565b60405180910390f35b610312610c88565b60405161031f919061260a565b60405180910390f35b610342600480360381019061033d919061272f565b610c8f565b6040516103519392919061290d565b60405180910390f35b610374600480360381019061036f9190612a7b565b610d5b565b005b610390600480360381019061038b919061272f565b610f95565b005b6103ac60048036038101906103a79190612b22565b610fee565b6040516103c199989796959493929190612b5e565b60405180910390f35b6103e460048036038101906103df9190612c07565b6112a9565b005b61040060048036038101906103fb91906126ef565b61166b565b005b61041c60048036038101906104179190612c67565b61168d565b005b6104266117fd565b6040516104339190612ed6565b60405180910390f35b6104566004803603810190610451919061272f565b611bf0565b6040516104639190612ed6565b60405180910390f35b6104746120ef565b604051610481919061260a565b60405180910390f35b610492612113565b60405161049f919061260a565b60405180910390f35b6104b0612137565b6040516104bd9190612ef8565b60405180910390f35b60007f7965db0b000000000000000000000000000000000000000000000000000000007bffffffffffffffffffffffffffffffffffffffffffffffffffffffff1916827bffffffffffffffffffffffffffffffffffffffffffffffffffffffff19161480610539575061053882612161565b5b9050919050565b60035481565b6000806000838152602001908152602001600020600101549050919050565b6002600083815260200190815260200160002060050160149054906101000a900460ff16156105c9576040517f08c379a00000000000000000000000000000000000000000000000000000000081526004016105c090612f5f565b60405180910390fd5b3373ffffffffffffffffffffffffffffffffffffffff166002600084815260200190815260200160002060050160009054906101000a900473ffffffffffffffffffffffffffffffffffffffff1673ffffffffffffffffffffffffffffffffffffffff161461066d576040517f08c379a000000000000000000000000000000000000000000000000000000000815260040161066490612fcb565b60405180910390fd5b806002600084815260200190815260200160002060050160006101000a81548173ffffffffffffffffffffffffffffffffffffffff021916908373ffffffffffffffffffffffffffffffffffffffff1602179055507f16b85f49bf01212961345d3016c9a531894accf62eb7680f2045d79185cc0ec08233836040516106f593929190612feb565b60405180910390a15050565b61070a82610546565b610713816121cb565b61071d83836121df565b50505050565b61072b6122d0565b73ffffffffffffffffffffffffffffffffffffffff168173ffffffffffffffffffffffffffffffffffffffff161461078f576040517f6697b23200000000000000000000000000000000000000000000000000000000815260040160405180910390fd5b61079982826122d8565b505050565b7fa49807205ce4d355092ef5a8a18f56e8913cf4a201fbe287825b095693c217756107c8816121cb565b6107f27feefb95e842a3287179d933b4460be539a1d5af11aa8b325bb45c5c8dc92de4ed836121df565b505050565b7fa49807205ce4d355092ef5a8a18f56e8913cf4a201fbe287825b095693c21775610821816121cb565b61084b7ffbd454f36a7e1a388bd6fc3ab10d434aa4578f811acbbcf33afb1c697486313c836121df565b505050565b7fa49807205ce4d355092ef5a8a18f56e8913cf4a201fbe287825b095693c2177581565b7fa49807205ce4d355092ef5a8a18f56e8913cf4a201fbe287825b095693c2177561089e816121cb565b600073ffffffffffffffffffffffffffffffffffffffff168573ffffffffffffffffffffffffffffffffffffffff160361090d576040517f08c379a00000000000000000000000000000000000000000000000000000000081526004016109049061306e565b60405180910390fd5b600160008673ffffffffffffffffffffffffffffffffffffffff1673ffffffffffffffffffffffffffffffffffffffff16815260200190815260200160002060000160009054906101000a900460ff161561099d576040517f08c379a0000000000000000000000000000000000000000000000000000000008152600401610994906130da565b60405180910390fd5b60018260ff16101580156109b5575060038260ff1611155b6109f4576040517f08c379a00000000000000000000000000000000000000000000000000000000081526004016109eb90613146565b60405180910390fd5b604051806060016040528060011515815260200185858080601f016020809104026020016040519081016040528093929190818152602001838380828437600081840152601f19601f8201169050808301925050505050505081526020018360ff16815250600160008773ffffffffffffffffffffffffffffffffffffffff1673ffffffffffffffffffffffffffffffffffffffff16815260200190815260200160002060008201518160000160006101000a81548160ff0219169083151502179055506020820151816001019081610acd9190613372565b5060408201518160020160006101000a81548160ff021916908360ff16021790555090505060018260ff1603610b2d57610b277feefb95e842a3287179d933b4460be539a1d5af11aa8b325bb45c5c8dc92de4ed866121df565b50610ba1565b60028260ff1603610b6857610b627ffbd454f36a7e1a388bd6fc3ab10d434aa4578f811acbbcf33afb1c697486313c866121df565b50610ba0565b60038260ff1603610b9f57610b9d7f2f3a5455f35aeca177ac653592f277fbe2fbafef01081a2030451bb2fb41c91d866121df565b505b5b5b8473ffffffffffffffffffffffffffffffffffffffff167fc2e5d5da58bd71d1a2d14cdef02a4256d971b728088f8190d067ccfbae3bd73e858585604051610beb93929190613471565b60405180910390a25050505050565b600080600084815260200190815260200160002060000160008373ffffffffffffffffffffffffffffffffffffffff1673ffffffffffffffffffffffffffffffffffffffff16815260200190815260200160002060009054906101000a900460ff16905092915050565b7feefb95e842a3287179d933b4460be539a1d5af11aa8b325bb45c5c8dc92de4ed81565b6000801b81565b60016020528060005260406000206000915090508060000160009054906101000a900460ff1690806001018054610cc590613195565b80601f0160208091040260200160405190810160405280929190818152602001828054610cf190613195565b8015610d3e5780601f10610d1357610100808354040283529160200191610d3e565b820191906000526020600020905b815481529060010190602001808311610d2157829003601f168201915b5050505050908060020160009054906101000a900460ff16905083565b7feefb95e842a3287179d933b4460be539a1d5af11aa8b325bb45c5c8dc92de4ed610d85816121cb565b60036000815480929190610d98906134d2565b919050555060405180610120016040528060035481526020018581526020018481526020018381526020013373ffffffffffffffffffffffffffffffffffffffff1681526020013373ffffffffffffffffffffffffffffffffffffffff16815260200160001515815260200142815260200160405180602001604052806000815250815250600260006003548152602001908152602001600020600082015181600001556020820151816001019081610e519190613372565b506040820151816002019081610e679190613372565b506060820151816003019081610e7d9190613372565b5060808201518160040160006101000a81548173ffffffffffffffffffffffffffffffffffffffff021916908373ffffffffffffffffffffffffffffffffffffffff16021790555060a08201518160050160006101000a81548173ffffffffffffffffffffffffffffffffffffffff021916908373ffffffffffffffffffffffffffffffffffffffff16021790555060c08201518160050160146101000a81548160ff02191690831515021790555060e08201518160060155610100820151816007019081610f4c9190613372565b509050507f29a34a5e164d5c4f0252ed8c39c132106551f97524a376b715d619e893b36166600354858433604051610f87949392919061351a565b60405180910390a150505050565b7fa49807205ce4d355092ef5a8a18f56e8913cf4a201fbe287825b095693c21775610fbf816121cb565b610fe97f2f3a5455f35aeca177ac653592f277fbe2fbafef01081a2030451bb2fb41c91d836121df565b505050565b600260205280600052604060002060009150905080600001549080600101805461101790613195565b80601f016020809104026020016040519081016040528092919081815260200182805461104390613195565b80156110905780601f1061106557610100808354040283529160200191611090565b820191906000526020600020905b81548152906001019060200180831161107357829003601f168201915b5050505050908060020180546110a590613195565b80601f01602080910402602001604051908101604052809291908181526020018280546110d190613195565b801561111e5780601f106110f35761010080835404028352916020019161111e565b820191906000526020600020905b81548152906001019060200180831161110157829003601f168201915b50505050509080600301805461113390613195565b80601f016020809104026020016040519081016040528092919081815260200182805461115f90613195565b80156111ac5780601f10611181576101008083540402835291602001916111ac565b820191906000526020600020905b81548152906001019060200180831161118f57829003601f168201915b5050505050908060040160009054906101000a900473ffffffffffffffffffffffffffffffffffffffff16908060050160009054906101000a900473ffffffffffffffffffffffffffffffffffffffff16908060050160149054906101000a900460ff169080600601549080600701805461122690613195565b80601f016020809104026020016040519081016040528092919081815260200182805461125290613195565b801561129f5780601f106112745761010080835404028352916020019161129f565b820191906000526020600020905b81548152906001019060200180831161128257829003601f168201915b5050505050905089565b7fa49807205ce4d355092ef5a8a18f56e8913cf4a201fbe287825b095693c217756112d3816121cb565b600160008573ffffffffffffffffffffffffffffffffffffffff1673ffffffffffffffffffffffffffffffffffffffff16815260200190815260200160002060000160009054906101000a900460ff16611362576040517f08c379a0000000000000000000000000000000000000000000000000000000008152600401611359906135b9565b60405180910390fd5b6000600160008673ffffffffffffffffffffffffffffffffffffffff1673ffffffffffffffffffffffffffffffffffffffff16815260200190815260200160002060020160009054906101000a900460ff1690506000600160008773ffffffffffffffffffffffffffffffffffffffff1673ffffffffffffffffffffffffffffffffffffffff16815260200190815260200160002060000160006101000a81548160ff02191690831515021790555060405180602001604052806000815250600160008773ffffffffffffffffffffffffffffffffffffffff1673ffffffffffffffffffffffffffffffffffffffff168152602001908152602001600020600101908161146f9190613372565b506000600160008773ffffffffffffffffffffffffffffffffffffffff1673ffffffffffffffffffffffffffffffffffffffff16815260200190815260200160002060020160006101000a81548160ff021916908360ff16021790555060018160ff1614801561150557506115047feefb95e842a3287179d933b4460be539a1d5af11aa8b325bb45c5c8dc92de4ed86610bfa565b5b1561153a576115347feefb95e842a3287179d933b4460be539a1d5af11aa8b325bb45c5c8dc92de4ed866122d8565b50611614565b60028160ff1614801561157357506115727ffbd454f36a7e1a388bd6fc3ab10d434aa4578f811acbbcf33afb1c697486313c86610bfa565b5b156115a8576115a27ffbd454f36a7e1a388bd6fc3ab10d434aa4578f811acbbcf33afb1c697486313c866122d8565b50611613565b60038160ff161480156115e157506115e07f2f3a5455f35aeca177ac653592f277fbe2fbafef01081a2030451bb2fb41c91d86610bfa565b5b15611612576116107f2f3a5455f35aeca177ac653592f277fbe2fbafef01081a2030451bb2fb41c91d866122d8565b505b5b5b8473ffffffffffffffffffffffffffffffffffffffff167f5278650bb7f0c8bbfaa9d44b8776f63dd0a95a166c83683511ee774790429ba7858560405161165c9291906135d9565b60405180910390a25050505050565b61167482610546565b61167d816121cb565b61168783836122d8565b50505050565b7fa49807205ce4d355092ef5a8a18f56e8913cf4a201fbe287825b095693c217756116b7816121cb565b6000831180156116c957506003548311155b611708576040517f08c379a00000000000000000000000000000000000000000000000000000000081526004016116ff90613649565b60405180910390fd5b6002600084815260200190815260200160002060050160149054906101000a900460ff161561176c576040517f08c379a0000000000000000000000000000000000000000000000000000000008152600401611763906136b5565b60405180910390fd5b60016002600085815260200190815260200160002060050160146101000a81548160ff021916908315150217905550816002600085815260200190815260200160002060070190816117be9190613372565b507f5e6e818235791c9ef1eca7d0bfd7dc540ad9603d984b7d095047ebaa7c043dbb83836040516117f09291906136d5565b60405180910390a1505050565b6060600060035467ffffffffffffffff81111561181d5761181c612950565b5b60405190808252806020026020018201604052801561185657816020015b61184361241b565b81526020019060019003908161183b5790505b5090506000600190505b6003548111611be8576002600082815260200190815260200160002060405180610120016040529081600082015481526020016001820180546118a290613195565b80601f01602080910402602001604051908101604052809291908181526020018280546118ce90613195565b801561191b5780601f106118f05761010080835404028352916020019161191b565b820191906000526020600020905b8154815290600101906020018083116118fe57829003601f168201915b5050505050815260200160028201805461193490613195565b80601f016020809104026020016040519081016040528092919081815260200182805461196090613195565b80156119ad5780601f10611982576101008083540402835291602001916119ad565b820191906000526020600020905b81548152906001019060200180831161199057829003601f168201915b505050505081526020016003820180546119c690613195565b80601f01602080910402602001604051908101604052809291908181526020018280546119f290613195565b8015611a3f5780601f10611a1457610100808354040283529160200191611a3f565b820191906000526020600020905b815481529060010190602001808311611a2257829003601f168201915b505050505081526020016004820160009054906101000a900473ffffffffffffffffffffffffffffffffffffffff1673ffffffffffffffffffffffffffffffffffffffff1673ffffffffffffffffffffffffffffffffffffffff1681526020016005820160009054906101000a900473ffffffffffffffffffffffffffffffffffffffff1673ffffffffffffffffffffffffffffffffffffffff1673ffffffffffffffffffffffffffffffffffffffff1681526020016005820160149054906101000a900460ff1615151515815260200160068201548152602001600782018054611b2990613195565b80601f0160208091040260200160405190810160405280929190818152602001828054611b5590613195565b8015611ba25780601f10611b7757610100808354040283529160200191611ba2565b820191906000526020600020905b815481529060010190602001808311611b8557829003601f168201915b50505050508152505082600183611bb99190613705565b81518110611bca57611bc9613739565b5b60200260200101819052508080611be0906134d2565b915050611860565b508091505090565b6060600080600190505b6003548111611c8e578373ffffffffffffffffffffffffffffffffffffffff166002600083815260200190815260200160002060040160009054906101000a900473ffffffffffffffffffffffffffffffffffffffff1673ffffffffffffffffffffffffffffffffffffffff1603611c7b578180611c77906134d2565b9250505b8080611c86906134d2565b915050611bfa565b5060008167ffffffffffffffff811115611cab57611caa612950565b5b604051908082528060200260200182016040528015611ce457816020015b611cd161241b565b815260200190600190039081611cc95790505b509050600080600190505b60035481116120e3578573ffffffffffffffffffffffffffffffffffffffff166002600083815260200190815260200160002060040160009054906101000a900473ffffffffffffffffffffffffffffffffffffffff1673ffffffffffffffffffffffffffffffffffffffff16036120d057600260008281526020019081526020016000206040518061012001604052908160008201548152602001600182018054611d9a90613195565b80601f0160208091040260200160405190810160405280929190818152602001828054611dc690613195565b8015611e135780601f10611de857610100808354040283529160200191611e13565b820191906000526020600020905b815481529060010190602001808311611df657829003601f168201915b50505050508152602001600282018054611e2c90613195565b80601f0160208091040260200160405190810160405280929190818152602001828054611e5890613195565b8015611ea55780601f10611e7a57610100808354040283529160200191611ea5565b820191906000526020600020905b815481529060010190602001808311611e8857829003601f168201915b50505050508152602001600382018054611ebe90613195565b80601f0160208091040260200160405190810160405280929190818152602001828054611eea90613195565b8015611f375780601f10611f0c57610100808354040283529160200191611f37565b820191906000526020600020905b815481529060010190602001808311611f1a57829003601f168201915b505050505081526020016004820160009054906101000a900473ffffffffffffffffffffffffffffffffffffffff1673ffffffffffffffffffffffffffffffffffffffff1673ffffffffffffffffffffffffffffffffffffffff1681526020016005820160009054906101000a900473ffffffffffffffffffffffffffffffffffffffff1673ffffffffffffffffffffffffffffffffffffffff1673ffffffffffffffffffffffffffffffffffffffff1681526020016005820160149054906101000a900460ff161515151581526020016006820154815260200160078201805461202190613195565b80601f016020809104026020016040519081016040528092919081815260200182805461204d90613195565b801561209a5780601f1061206f5761010080835404028352916020019161209a565b820191906000526020600020905b81548152906001019060200180831161207d57829003601f168201915b5050505050815250508383815181106120b6576120b5613739565b5b602002602001018190525081806120cc906134d2565b9250505b80806120db906134d2565b915050611cef565b50819350505050919050565b7ffbd454f36a7e1a388bd6fc3ab10d434aa4578f811acbbcf33afb1c697486313c81565b7f2f3a5455f35aeca177ac653592f277fbe2fbafef01081a2030451bb2fb41c91d81565b6000600460009054906101000a900473ffffffffffffffffffffffffffffffffffffffff16905090565b60007f01ffc9a7000000000000000000000000000000000000000000000000000000007bffffffffffffffffffffffffffffffffffffffffffffffffffffffff1916827bffffffffffffffffffffffffffffffffffffffffffffffffffffffff1916149050919050565b6121dc816121d76122d0565b6123ca565b50565b60006121eb8383610bfa565b6122c557600160008085815260200190815260200160002060000160008473ffffffffffffffffffffffffffffffffffffffff1673ffffffffffffffffffffffffffffffffffffffff16815260200190815260200160002060006101000a81548160ff0219169083151502179055506122626122d0565b73ffffffffffffffffffffffffffffffffffffffff168273ffffffffffffffffffffffffffffffffffffffff16847f2f8788117e7eff1d82e926ec794901d17c78024a50270940304540a733656f0d60405160405180910390a4600190506122ca565b600090505b92915050565b600033905090565b60006122e48383610bfa565b156123bf57600080600085815260200190815260200160002060000160008473ffffffffffffffffffffffffffffffffffffffff1673ffffffffffffffffffffffffffffffffffffffff16815260200190815260200160002060006101000a81548160ff02191690831515021790555061235c6122d0565b73ffffffffffffffffffffffffffffffffffffffff168273ffffffffffffffffffffffffffffffffffffffff16847ff6391f5c32d9c69d2a47ea670b442974b53935d1edc7fd64eb21e047a839171b60405160405180910390a4600190506123c4565b600090505b92915050565b6123d48282610bfa565b6124175780826040517fe2517d3f00000000000000000000000000000000000000000000000000000000815260040161240e929190613768565b60405180910390fd5b5050565b60405180610120016040528060008152602001606081526020016060815260200160608152602001600073ffffffffffffffffffffffffffffffffffffffff168152602001600073ffffffffffffffffffffffffffffffffffffffff16815260200160001515815260200160008152602001606081525090565b6000604051905090565b600080fd5b600080fd5b60007fffffffff0000000000000000000000000000000000000000000000000000000082169050919050565b6124de816124a9565b81146124e957600080fd5b50565b6000813590506124fb816124d5565b92915050565b6000602082840312156125175761251661249f565b5b6000612525848285016124ec565b91505092915050565b60008115159050919050565b6125438161252e565b82525050565b600060208201905061255e600083018461253a565b92915050565b6000819050919050565b61257781612564565b82525050565b6000602082019050612592600083018461256e565b92915050565b6000819050919050565b6125ab81612598565b81146125b657600080fd5b50565b6000813590506125c8816125a2565b92915050565b6000602082840312156125e4576125e361249f565b5b60006125f2848285016125b9565b91505092915050565b61260481612598565b82525050565b600060208201905061261f60008301846125fb565b92915050565b61262e81612564565b811461263957600080fd5b50565b60008135905061264b81612625565b92915050565b600073ffffffffffffffffffffffffffffffffffffffff82169050919050565b600061267c82612651565b9050919050565b61268c81612671565b811461269757600080fd5b50565b6000813590506126a981612683565b92915050565b600080604083850312156126c6576126c561249f565b5b60006126d48582860161263c565b92505060206126e58582860161269a565b9150509250929050565b600080604083850312156127065761270561249f565b5b6000612714858286016125b9565b92505060206127258582860161269a565b9150509250929050565b6000602082840312156127455761274461249f565b5b60006127538482850161269a565b91505092915050565b600080fd5b600080fd5b600080fd5b60008083601f8401126127815761278061275c565b5b8235905067ffffffffffffffff81111561279e5761279d612761565b5b6020830191508360018202830111156127ba576127b9612766565b5b9250929050565b600060ff82169050919050565b6127d7816127c1565b81146127e257600080fd5b50565b6000813590506127f4816127ce565b92915050565b600080600080606085870312156128145761281361249f565b5b60006128228782880161269a565b945050602085013567ffffffffffffffff811115612843576128426124a4565b5b61284f8782880161276b565b93509350506040612862878288016127e5565b91505092959194509250565b600081519050919050565b600082825260208201905092915050565b60005b838110156128a857808201518184015260208101905061288d565b60008484015250505050565b6000601f19601f8301169050919050565b60006128d08261286e565b6128da8185612879565b93506128ea81856020860161288a565b6128f3816128b4565b840191505092915050565b612907816127c1565b82525050565b6000606082019050612922600083018661253a565b818103602083015261293481856128c5565b905061294360408301846128fe565b949350505050565b600080fd5b7f4e487b7100000000000000000000000000000000000000000000000000000000600052604160045260246000fd5b612988826128b4565b810181811067ffffffffffffffff821117156129a7576129a6612950565b5b80604052505050565b60006129ba612495565b90506129c6828261297f565b919050565b600067ffffffffffffffff8211156129e6576129e5612950565b5b6129ef826128b4565b9050602081019050919050565b82818337600083830152505050565b6000612a1e612a19846129cb565b6129b0565b905082815260208101848484011115612a3a57612a3961294b565b5b612a458482856129fc565b509392505050565b600082601f830112612a6257612a6161275c565b5b8135612a72848260208601612a0b565b91505092915050565b600080600060608486031215612a9457612a9361249f565b5b600084013567ffffffffffffffff811115612ab257612ab16124a4565b5b612abe86828701612a4d565b935050602084013567ffffffffffffffff811115612adf57612ade6124a4565b5b612aeb86828701612a4d565b925050604084013567ffffffffffffffff811115612b0c57612b0b6124a4565b5b612b1886828701612a4d565b9150509250925092565b600060208284031215612b3857612b3761249f565b5b6000612b468482850161263c565b91505092915050565b612b5881612671565b82525050565b600061012082019050612b74600083018c61256e565b8181036020830152612b86818b6128c5565b90508181036040830152612b9a818a6128c5565b90508181036060830152612bae81896128c5565b9050612bbd6080830188612b4f565b612bca60a0830187612b4f565b612bd760c083018661253a565b612be460e083018561256e565b818103610100830152612bf781846128c5565b90509a9950505050505050505050565b600080600060408486031215612c2057612c1f61249f565b5b6000612c2e8682870161269a565b935050602084013567ffffffffffffffff811115612c4f57612c4e6124a4565b5b612c5b8682870161276b565b92509250509250925092565b60008060408385031215612c7e57612c7d61249f565b5b6000612c8c8582860161263c565b925050602083013567ffffffffffffffff811115612cad57612cac6124a4565b5b612cb985828601612a4d565b9150509250929050565b600081519050919050565b600082825260208201905092915050565b6000819050602082019050919050565b612cf881612564565b82525050565b600082825260208201905092915050565b6000612d1a8261286e565b612d248185612cfe565b9350612d3481856020860161288a565b612d3d816128b4565b840191505092915050565b612d5181612671565b82525050565b612d608161252e565b82525050565b600061012083016000830151612d7f6000860182612cef565b5060208301518482036020860152612d978282612d0f565b91505060408301518482036040860152612db18282612d0f565b91505060608301518482036060860152612dcb8282612d0f565b9150506080830151612de06080860182612d48565b5060a0830151612df360a0860182612d48565b5060c0830151612e0660c0860182612d57565b5060e0830151612e1960e0860182612cef565b50610100830151848203610100860152612e338282612d0f565b9150508091505092915050565b6000612e4c8383612d66565b905092915050565b6000602082019050919050565b6000612e6c82612cc3565b612e768185612cce565b935083602082028501612e8885612cdf565b8060005b85811015612ec45784840389528151612ea58582612e40565b9450612eb083612e54565b925060208a01995050600181019050612e8c565b50829750879550505050505092915050565b60006020820190508181036000830152612ef08184612e61565b905092915050565b6000602082019050612f0d6000830184612b4f565b92915050565b7f4261746368207265766f6b656400000000000000000000000000000000000000600082015250565b6000612f49600d83612879565b9150612f5482612f13565b602082019050919050565b60006020820190508181036000830152612f7881612f3c565b9050919050565b7f4e6f74206f776e65720000000000000000000000000000000000000000000000600082015250565b6000612fb5600983612879565b9150612fc082612f7f565b602082019050919050565b60006020820190508181036000830152612fe481612fa8565b9050919050565b6000606082019050613000600083018661256e565b61300d6020830185612b4f565b61301a6040830184612b4f565b949350505050565b7f496e76616c696420616464726573730000000000000000000000000000000000600082015250565b6000613058600f83612879565b915061306382613022565b602082019050919050565b600060208201905081810360008301526130878161304b565b9050919050565b7f5573657220616c72656164792072656769737465726564000000000000000000600082015250565b60006130c4601783612879565b91506130cf8261308e565b602082019050919050565b600060208201905081810360008301526130f3816130b7565b9050919050565b7f496e76616c696420726f6c650000000000000000000000000000000000000000600082015250565b6000613130600c83612879565b915061313b826130fa565b602082019050919050565b6000602082019050818103600083015261315f81613123565b9050919050565b7f4e487b7100000000000000000000000000000000000000000000000000000000600052602260045260246000fd5b600060028204905060018216806131ad57607f821691505b6020821081036131c0576131bf613166565b5b50919050565b60008190508160005260206000209050919050565b60006020601f8301049050919050565b600082821b905092915050565b6000600883026132287fffffffffffffffffffffffffffffffffffffffffffffffffffffffffffffffff826131eb565b61323286836131eb565b95508019841693508086168417925050509392505050565b6000819050919050565b600061326f61326a61326584612564565b61324a565b612564565b9050919050565b6000819050919050565b61328983613254565b61329d61329582613276565b8484546131f8565b825550505050565b600090565b6132b26132a5565b6132bd818484613280565b505050565b5b818110156132e1576132d66000826132aa565b6001810190506132c3565b5050565b601f821115613326576132f7816131c6565b613300846131db565b8101602085101561330f578190505b61332361331b856131db565b8301826132c2565b50505b505050565b600082821c905092915050565b60006133496000198460080261332b565b1980831691505092915050565b60006133628383613338565b9150826002028217905092915050565b61337b8261286e565b67ffffffffffffffff81111561339457613393612950565b5b61339e8254613195565b6133a98282856132e5565b600060209050601f8311600181146133dc57600084156133ca578287015190505b6133d48582613356565b86555061343c565b601f1984166133ea866131c6565b60005b82811015613412578489015182556001820191506020850194506020810190506133ed565b8683101561342f578489015161342b601f891682613338565b8355505b6001600288020188555050505b505050505050565b60006134508385612879565b935061345d8385846129fc565b613466836128b4565b840190509392505050565b6000604082019050818103600083015261348c818587613444565b905061349b60208301846128fe565b949350505050565b7f4e487b7100000000000000000000000000000000000000000000000000000000600052601160045260246000fd5b60006134dd82612564565b91507fffffffffffffffffffffffffffffffffffffffffffffffffffffffffffffffff820361350f5761350e6134a3565b5b600182019050919050565b600060808201905061352f600083018761256e565b818103602083015261354181866128c5565b9050818103604083015261355581856128c5565b90506135646060830184612b4f565b95945050505050565b7f55736572206e6f74207265676973746572656400000000000000000000000000600082015250565b60006135a3601383612879565b91506135ae8261356d565b602082019050919050565b600060208201905081810360008301526135d281613596565b9050919050565b600060208201905081810360008301526135f4818486613444565b90509392505050565b7f496e76616c696420626174636800000000000000000000000000000000000000600082015250565b6000613633600d83612879565b915061363e826135fd565b602082019050919050565b6000602082019050818103600083015261366281613626565b9050919050565b7f416c7265616479207265766f6b65640000000000000000000000000000000000600082015250565b600061369f600f83612879565b91506136aa82613669565b602082019050919050565b600060208201905081810360008301526136ce81613692565b9050919050565b60006040820190506136ea600083018561256e565b81810360208301526136fc81846128c5565b90509392505050565b600061371082612564565b915061371b83612564565b9250828203905081811115613733576137326134a3565b5b92915050565b7f4e487b7100000000000000000000000000000000000000000000000000000000600052603260045260246000fd5b600060408201905061377d6000830185612b4f565b61378a60208301846125fb565b939250505056fea264697066735822122093654a505939ef6e307324132bccdd3d3de014d4448160557482984a993d243164736f6c634300081c0033",
  "linkReferences": {},
  "deployedLinkReferences": {}
}